{
  "_format": "hh-sol-artifact-1",
  "contractName": "RateX",
  "sourceName": "contracts/RateX.sol",
  "abi": [
    {
      "inputs": [
        {
          "internalType": "address",
          "name": "_sushiSwapDexAddress",
          "type": "address"
        }
      ],
      "stateMutability": "nonpayable",
      "type": "constructor"
    },
    {
      "anonymous": false,
      "inputs": [
        {
          "indexed": true,
          "internalType": "address",
          "name": "previousOwner",
          "type": "address"
        },
        {
          "indexed": true,
          "internalType": "address",
          "name": "newOwner",
          "type": "address"
        }
      ],
      "name": "OwnershipTransferred",
      "type": "event"
    },
    {
      "inputs": [
        {
          "internalType": "string",
          "name": "",
          "type": "string"
        }
      ],
      "name": "dexes",
      "outputs": [
        {
          "internalType": "address",
          "name": "",
          "type": "address"
        }
      ],
      "stateMutability": "view",
      "type": "function"
    },
    {
      "inputs": [],
      "name": "owner",
      "outputs": [
        {
          "internalType": "address",
          "name": "",
          "type": "address"
        }
      ],
      "stateMutability": "view",
      "type": "function"
    },
    {
      "inputs": [
        {
          "internalType": "string",
          "name": "_dexId",
          "type": "string"
        },
        {
          "internalType": "address",
          "name": "_tokenIn",
          "type": "address"
        },
        {
          "internalType": "address",
          "name": "_tokenOut",
          "type": "address"
        },
        {
          "internalType": "uint256",
          "name": "_amountIn",
          "type": "uint256"
        }
      ],
      "name": "quote",
      "outputs": [
        {
          "internalType": "uint256",
          "name": "amountOut",
          "type": "uint256"
        }
      ],
      "stateMutability": "view",
      "type": "function"
    },
    {
      "inputs": [],
      "name": "renounceOwnership",
      "outputs": [],
      "stateMutability": "nonpayable",
      "type": "function"
    },
    {
      "inputs": [
        {
          "internalType": "address",
          "name": "_tokenIn",
          "type": "address"
        },
        {
          "internalType": "address",
          "name": "_tokenOut",
          "type": "address"
        },
        {
          "internalType": "uint256",
          "name": "_amountIn",
          "type": "uint256"
        },
        {
          "internalType": "uint256",
          "name": "_minAmountOut",
          "type": "uint256"
        },
        {
          "internalType": "address",
          "name": "_to",
          "type": "address"
        },
        {
          "internalType": "string",
          "name": "_dexId",
          "type": "string"
        }
      ],
      "name": "swap",
      "outputs": [],
      "stateMutability": "nonpayable",
      "type": "function"
    },
    {
      "inputs": [
        {
          "internalType": "address",
          "name": "newOwner",
          "type": "address"
        }
      ],
      "name": "transferOwnership",
      "outputs": [],
      "stateMutability": "nonpayable",
      "type": "function"
    }
  ],
  "bytecode": "0x60806040523480156200001157600080fd5b5060405162001273380380620012738339818101604052810190620000379190620001f1565b620000576200004b620000bb60201b60201c565b620000c360201b60201c565b80600160405162000068906200027e565b908152602001604051809103902060006101000a81548173ffffffffffffffffffffffffffffffffffffffff021916908373ffffffffffffffffffffffffffffffffffffffff1602179055505062000295565b600033905090565b60008060009054906101000a900473ffffffffffffffffffffffffffffffffffffffff169050816000806101000a81548173ffffffffffffffffffffffffffffffffffffffff021916908373ffffffffffffffffffffffffffffffffffffffff1602179055508173ffffffffffffffffffffffffffffffffffffffff168173ffffffffffffffffffffffffffffffffffffffff167f8be0079c531659141344cd1fd0a4f28419497f9722a3daafe3b4186f6b6457e060405160405180910390a35050565b600080fd5b600073ffffffffffffffffffffffffffffffffffffffff82169050919050565b6000620001b9826200018c565b9050919050565b620001cb81620001ac565b8114620001d757600080fd5b50565b600081519050620001eb81620001c0565b92915050565b6000602082840312156200020a576200020962000187565b5b60006200021a84828501620001da565b91505092915050565b600081905092915050565b7f53555348495f5632000000000000000000000000000000000000000000000000600082015250565b60006200026660088362000223565b915062000273826200022e565b600882019050919050565b60006200028b8262000257565b9150819050919050565b610fce80620002a56000396000f3fe608060405234801561001057600080fd5b50600436106100625760003560e01c806345040445146100675780636714b59814610097578063715018a6146100c757806376f2f5b3146100d15780638da5cb5b146100ed578063f2fde38b1461010b575b600080fd5b610081600480360381019061007c9190610945565b610127565b60405161008e91906109cf565b60405180910390f35b6100b160048036038101906100ac9190610a4c565b610170565b6040516100be9190610ade565b60405180910390f35b6100cf6102e4565b005b6100eb60048036038101906100e69190610af9565b6102f8565b005b6100f56105f5565b60405161010291906109cf565b60405180910390f35b61012560048036038101906101209190610ba2565b61061e565b005b6001818051602081018201805184825260208301602085012081835280955050505050506000915054906101000a900473ffffffffffffffffffffffffffffffffffffffff1681565b60008073ffffffffffffffffffffffffffffffffffffffff166001866040516101999190610c40565b908152602001604051809103902060009054906101000a900473ffffffffffffffffffffffffffffffffffffffff1673ffffffffffffffffffffffffffffffffffffffff160361021e576040517f08c379a000000000000000000000000000000000000000000000000000000000815260040161021590610cb4565b60405180910390fd5b60018560405161022e9190610c40565b908152602001604051809103902060009054906101000a900473ffffffffffffffffffffffffffffffffffffffff1673ffffffffffffffffffffffffffffffffffffffff1663b64663848585856040518463ffffffff1660e01b815260040161029993929190610cd4565b602060405180830381865afa1580156102b6573d6000803e3d6000fd5b505050506040513d601f19601f820116820180604052508101906102da9190610d20565b9050949350505050565b6102ec6106a1565b6102f6600061071f565b565b600073ffffffffffffffffffffffffffffffffffffffff166001826040516103209190610c40565b908152602001604051809103902060009054906101000a900473ffffffffffffffffffffffffffffffffffffffff1673ffffffffffffffffffffffffffffffffffffffff16036103a5576040517f08c379a000000000000000000000000000000000000000000000000000000000815260040161039c90610cb4565b60405180910390fd5b8573ffffffffffffffffffffffffffffffffffffffff166323b872dd3330876040518463ffffffff1660e01b81526004016103e293929190610cd4565b6020604051808303816000875af1158015610401573d6000803e3d6000fd5b505050506040513d601f19601f820116820180604052508101906104259190610d85565b508573ffffffffffffffffffffffffffffffffffffffff1663095ea7b36001836040516104529190610c40565b908152602001604051809103902060009054906101000a900473ffffffffffffffffffffffffffffffffffffffff16866040518363ffffffff1660e01b815260040161049f929190610db2565b6020604051808303816000875af11580156104be573d6000803e3d6000fd5b505050506040513d601f19601f820116820180604052508101906104e29190610d85565b5060006001826040516104f59190610c40565b908152602001604051809103902060009054906101000a900473ffffffffffffffffffffffffffffffffffffffff1673ffffffffffffffffffffffffffffffffffffffff1663d5bcb9b588888888886040518663ffffffff1660e01b8152600401610564959493929190610ddb565b6020604051808303816000875af1158015610583573d6000803e3d6000fd5b505050506040513d601f19601f820116820180604052508101906105a79190610d20565b9050838110156105ec576040517f08c379a00000000000000000000000000000000000000000000000000000000081526004016105e390610e7a565b60405180910390fd5b50505050505050565b60008060009054906101000a900473ffffffffffffffffffffffffffffffffffffffff16905090565b6106266106a1565b600073ffffffffffffffffffffffffffffffffffffffff168173ffffffffffffffffffffffffffffffffffffffff1603610695576040517f08c379a000000000000000000000000000000000000000000000000000000000815260040161068c90610f0c565b60405180910390fd5b61069e8161071f565b50565b6106a96107e3565b73ffffffffffffffffffffffffffffffffffffffff166106c76105f5565b73ffffffffffffffffffffffffffffffffffffffff161461071d576040517f08c379a000000000000000000000000000000000000000000000000000000000815260040161071490610f78565b60405180910390fd5b565b60008060009054906101000a900473ffffffffffffffffffffffffffffffffffffffff169050816000806101000a81548173ffffffffffffffffffffffffffffffffffffffff021916908373ffffffffffffffffffffffffffffffffffffffff1602179055508173ffffffffffffffffffffffffffffffffffffffff168173ffffffffffffffffffffffffffffffffffffffff167f8be0079c531659141344cd1fd0a4f28419497f9722a3daafe3b4186f6b6457e060405160405180910390a35050565b600033905090565b6000604051905090565b600080fd5b600080fd5b600080fd5b600080fd5b6000601f19601f8301169050919050565b7f4e487b7100000000000000000000000000000000000000000000000000000000600052604160045260246000fd5b61085282610809565b810181811067ffffffffffffffff821117156108715761087061081a565b5b80604052505050565b60006108846107eb565b90506108908282610849565b919050565b600067ffffffffffffffff8211156108b0576108af61081a565b5b6108b982610809565b9050602081019050919050565b82818337600083830152505050565b60006108e86108e384610895565b61087a565b90508281526020810184848401111561090457610903610804565b5b61090f8482856108c6565b509392505050565b600082601f83011261092c5761092b6107ff565b5b813561093c8482602086016108d5565b91505092915050565b60006020828403121561095b5761095a6107f5565b5b600082013567ffffffffffffffff811115610979576109786107fa565b5b61098584828501610917565b91505092915050565b600073ffffffffffffffffffffffffffffffffffffffff82169050919050565b60006109b98261098e565b9050919050565b6109c9816109ae565b82525050565b60006020820190506109e460008301846109c0565b92915050565b6109f3816109ae565b81146109fe57600080fd5b50565b600081359050610a10816109ea565b92915050565b6000819050919050565b610a2981610a16565b8114610a3457600080fd5b50565b600081359050610a4681610a20565b92915050565b60008060008060808587031215610a6657610a656107f5565b5b600085013567ffffffffffffffff811115610a8457610a836107fa565b5b610a9087828801610917565b9450506020610aa187828801610a01565b9350506040610ab287828801610a01565b9250506060610ac387828801610a37565b91505092959194509250565b610ad881610a16565b82525050565b6000602082019050610af36000830184610acf565b92915050565b60008060008060008060c08789031215610b1657610b156107f5565b5b6000610b2489828a01610a01565b9650506020610b3589828a01610a01565b9550506040610b4689828a01610a37565b9450506060610b5789828a01610a37565b9350506080610b6889828a01610a01565b92505060a087013567ffffffffffffffff811115610b8957610b886107fa565b5b610b9589828a01610917565b9150509295509295509295565b600060208284031215610bb857610bb76107f5565b5b6000610bc684828501610a01565b91505092915050565b600081519050919050565b600081905092915050565b60005b83811015610c03578082015181840152602081019050610be8565b60008484015250505050565b6000610c1a82610bcf565b610c248185610bda565b9350610c34818560208601610be5565b80840191505092915050565b6000610c4c8284610c0f565b915081905092915050565b600082825260208201905092915050565b7f446578206e6f7420737570706f72746564000000000000000000000000000000600082015250565b6000610c9e601183610c57565b9150610ca982610c68565b602082019050919050565b60006020820190508181036000830152610ccd81610c91565b9050919050565b6000606082019050610ce960008301866109c0565b610cf660208301856109c0565b610d036040830184610acf565b949350505050565b600081519050610d1a81610a20565b92915050565b600060208284031215610d3657610d356107f5565b5b6000610d4484828501610d0b565b91505092915050565b60008115159050919050565b610d6281610d4d565b8114610d6d57600080fd5b50565b600081519050610d7f81610d59565b92915050565b600060208284031215610d9b57610d9a6107f5565b5b6000610da984828501610d70565b91505092915050565b6000604082019050610dc760008301856109c0565b610dd46020830184610acf565b9392505050565b600060a082019050610df060008301886109c0565b610dfd60208301876109c0565b610e0a6040830186610acf565b610e176060830185610acf565b610e2460808301846109c0565b9695505050505050565b7f416d6f756e74206c6573736572207468616e206d696e20616d6f756e74000000600082015250565b6000610e64601d83610c57565b9150610e6f82610e2e565b602082019050919050565b60006020820190508181036000830152610e9381610e57565b9050919050565b7f4f776e61626c653a206e6577206f776e657220697320746865207a65726f206160008201527f6464726573730000000000000000000000000000000000000000000000000000602082015250565b6000610ef6602683610c57565b9150610f0182610e9a565b604082019050919050565b60006020820190508181036000830152610f2581610ee9565b9050919050565b7f4f776e61626c653a2063616c6c6572206973206e6f7420746865206f776e6572600082015250565b6000610f62602083610c57565b9150610f6d82610f2c565b602082019050919050565b60006020820190508181036000830152610f9181610f55565b905091905056fea26469706673582212205928881add7a2af8e07a0ff261d986607834b42f49a858f4ff495384cc717e7264736f6c63430008130033",
  "linkReferences": {},
  "deployedLinkReferences": {}
}